:0400000007EF00F016
:1000080058827EED11F0FCEF10F0410E0001636F95
:10001800EFD3250E7519D8B407D03E50D96EDA6AD9
:1000280075C0DFFF3E2AE4D3000E656F000E646FD3
:100038003FC0F6FF40C0F7FF0800F5502E0AD8A4CD
:1000480035D0658D3F4A402A000E716F000E706FE3
:1000580022D070C003F071C004F0000E066E0A0EC4
:10006800056EE0EC11F003C070F004C071F03FC001
:10007800F6FF40C0F7FF0800F5CF45F0D00E452445
:10008800466E476AFF0E47224650000170274750C8
:1000980071233F4A402A3FC0F6FF40C0F7FF0800DF
:1000A800F55005EC12F0D8A00BD0D3D7000E716F25
:1000B800000E706F658904D0648902D065851BD0F5
:1000C8003FC0F6FF40C0F7FF3F4A402A0800F5CF7F
:1000D80075F000017551000AD8B496D3640AD8B4F3
:1000E8000AD0020AD8B4EAD70F0AD8B404D0050A4D
:1000F800D8B4E2D77DD3070E6515D8B4B3D265A9B5
:1001080004D0000E716F060E706F6351D96EDA6AF3
:10011800DECF72F0DECF73F0DDCF74F0030E63270D
:1001280074AF10D072C003F073C004F074C005F04F
:10013800F3EC11F003C072F004C073F005C074F062
:10014800030E6413000E676F000E666F7251731111
:100158007411D8B486D0820E456EFF0E466E72C0FA
:1001680047F073C048F074C049F075C04AF0100EEB
:1001780005D0D8904A32493248324732E82EF9D76A
:1001880047504524666F000E4620676F6607D8A063
:10019800670766C003F067C004F0000E066E030E22
:1001A800056EE0EC11F003C066F004C067F066C0AD
:1001B80009F067C00AF0000E0C6E0A0E0B6EBCEC5C
:1001C8000DF009C066F00AC067F0000167AF03D000
:1001D8006607D8A06707665100080DEC04F020C038
:1001E80068F021C069F022C06AF068C011F069C0E7
:1001F80012F06AC013F072C014F073C015F074C026
:1002080016F042EC0AF011C068F012C069F013C091
:100218006AF068C003F069C004F06AC005F0000E17
:10022800066E800E076E3F0E086EBAEC0EF0D8B060
:1002380005D000016607D8A0670713D068C003F08F
:1002480069C004F06AC005F0000E066E200E076E45
:10025800410E086EBAEC0EF0D8A003D00001664B30
:10026800672B000171BF06D071511BE10D0E705D47
:10027800D8B017D072C02CF073C02DF074C02EF017
:100288007051D1EC06F020C02FF021C030F022C010
:1002980031F0C3EC07F02CC072F02DC073F02EC003
:1002A80074F0000167BF06D0675120E10A0E665D51
:1002B800D8B01CD0725173117411D8B456D072C012
:1002C80027F073C028F074C029F0A9EC0BF0275070
:1002D800281029102A10D8A448D0000167BF45D09B
:1002E800675104E1020E665DD8A03FD068C003F0F4
:1002F80069C004F06AC005F0700E066E890E076EBC
:10030800400E086EBAEC0EF0D8B003D00001F70E1C
:1003180002D00001F80E6627FF0E672366510DEC28
:1003280004F020C068F021C069F022C06AF072C0F1
:1003380003F073C004F074C005F068C006F069C02B
:1003480007F06AC008F0C3EC09F003C06CF004C001
:100358006DF005C06EF006C06FF0000E0001726F00
:10036800000E736F000E746F33D072C027F073C025
:1003780028F074C029F0A9EC0BF027C06CF028C055
:100388006DF029C06EF02AC06FF072C038F073C0EB
:1003980039F074C03AF06CC00BF06DC00CF06EC050
:1003A8000DF06FC00EF090EC0FF00BC03BF00CC0DE
:1003B8003CF00DC03DF03EEC11F038C072F039C091
:1003C80073F03AC074F0000E0001676F000E666F9C
:1003D800010E756F7551040D030EF324F66E7F0E32
:1003E800F420F76E0900F5506C5D0900F5506D5961
:1003F8000900F5506E590900F5506F59D8A005D07D
:10040800752B0A0E7519D8A4E5D764C045F0030EFC
:100418004516D8B44ED03E50D96EDA6A2D0EDF6E2E
:100428003E2A47D06CC00FF06DC010F06EC011F0BE
:100438006FC012F07551040D030EF324F66E7F0E93
:10044800F420F76E0900F5CF13F00900F5CF14F08A
:100458000900F5CF15F00A00F5CF16F0FDEC0DF008
:100468000FC068F010C069F011C06AF012C06BF0DC
:1004780068C01CF069C01DF06AC01EF06BC01FF098
:100488000A0E206E000E216E000E226E000E236EE4
:100498002BEC0FF01CC068F01DC069F01EC06AF09C
:1004A8001FC06BF03E50D96EDA6A00016851300FF8
:1004B800B6D775077529D8B40AD0B4D73E50D96EC7
:1004C800DA6A300EDF6E3E2A6607D8A0670767BF74
:1004D80005D06751F3E16605D8B0F0D771BF09D0F0
:1004E800715104E1090E705DD8A003D0080E756F34
:1004F80002D070C075F07551705F000E715B755158
:10050800D8B406D03E50D96EDA6A2E0EDF6E3E2A77
:1005180075510DEC04F020C060F021C061F022C0DC
:1005280062F072C014F073C015F074C016F060C0A9
:1005380011F061C012F062C013F042EC0AF011C071
:1005480027F012C028F013C029F0A9EC0BF027C03F
:100558006CF028C06DF029C06EF02AC06FF06ED024
:100568006CC00FF06DC010F06EC011F06FC012F0CB
:100578007551040D030EF324F66E7F0EF420F76E0A
:100588000900F5CF13F00900F5CF14F00900F5CFF5
:1005980015F00A00F5CF16F0FDEC0DF00FC068F06D
:1005A80010C069F011C06AF012C06BF068C01CF08E
:1005B80069C01DF06AC01EF06BC01FF00A0E206EE5
:1005C800000E216E000E226E000E236E2BEC0FF033
:1005D8001CC068F01DC069F01EC06AF01FC06BF037
:1005E8003E50D96EDA6A00016851300FDF6E3E2A3C
:1005F8006CC01CF06DC01DF06EC01EF06FC01FF007
:100608007551040D030EF324F66E7F0EF420F76E79
:100618000900F5CF20F00900F5CF21F00900F5CF4A
:1006280022F00A00F5CF23F02BEC0FF01CC06CF081
:100638001DC06DF01EC06EF01FC06FF00001750781
:100648007529D8B40AD08CD73E50D96EDA6A300EE4
:10065800DF6E3E2A7007D8A0710770517111D8B4A7
:10066800C7D0F2D764A90DD06351D96EDA6ADECF4C
:100678006CF0DECF6DF0DECF6EF0DECF6FF0040EE3
:100688000DD06351D96EDA6ADECF6CF0DDCF6DF034
:10069800000E6DBFFF0E6E6F6F6F020E63276FAF98
:1006A8000AD0030E64136F1F6E1F6D1F6C6D000E52
:1006B8006D236E236F2370517111D8A408D06C512B
:1006C8006D116E116F11D8A402D0704B712B010EF1
:1006D800756F7551040D030EF324F66E7F0EF4202A
:1006E800F76E0900F5506C5D0900F5506D59090069
:1006F800F5506E590900F5506F59D8A005D0752BE3
:100708000A0E7519D8A4E5D77551456E466A705119
:10071800455C4650800A476E7151800A4758D8A0F8
:1007280010D07551456E466A4550705D7151800A0A
:10073800476E4650800A4758D8B003D075C070F04D
:10074800716B64C045F0030E4516D8B449D03E50CD
:10075800D96EDA6A2D0EDF6E3E2A42D070C045F09F
:1007680071C046F0D89045364636D890453646365C
:10077800030E4524F66E7F0E4620F76E0900F5CF6E
:1007880013F00900F5CF14F00900F5CF15F00A00B1
:10079800F5CF16F06CC00FF06DC010F06EC011F000
:1007A8006FC012F0FDEC0DF00FC01CF010C01DF072
:1007B80011C01EF012C01FF00A0E206E000E216E2E
:1007C800000E226E000E236E2BEC0FF01C50300F23
:1007D8000001756F3E50D96EDA6A75C0DFFFBCD76D
:1007E8007007D8A071077029B9E17129D8A4B6D7C4
:1007F8003FC0F6FF40C0F7FF3F4A402A0800F5CF48
:1008080075F07551D8A405D43E50D96EDA6ADF6AFE
:100818001200266E26AED9D0266C2650800A120FFA
:10082800D8A079D0000E0C6E0A0E0B6E000E066E64
:10083800640E056E2650036E046A03BE0406F4ECCB
:100848000EF003C009F004C00AF0BCEC0DF0090E6C
:1008580009260950030DDC0EF324F66E7E0EF420F3
:10086800F76E0900F5CF14F00900F5CF15F00A006E
:10087800F5CF16F0000E0C6E640E0B6E2650096E46
:100888000A6A09BE0A06BCEC0DF0120E09260950C8
:10089800030DDC0EF324F66E7E0EF420F76E0900CD
:1008A800F5CF11F00900F5CF12F00A00F5CF13F0DB
:1008B80042EC0AF011C023F012C024F013C025F056
:1008C80023C011F024C012F025C013F0000E066EEC
:1008D8000A0E056E2650036E046A03BE0406F4EC85
:1008E8000EF00350030DDC0EF324F66E7E0EF4209A
:1008F800F76E0900F5CF14F00900F5CF15F00A00DE
:10090800F5CF16F042EC0AF011C020F012C021F029
:1009180013C022F012002650800A750FD8A043D0C9
:10092800000E0C6E0A0E0B6E2650096E0A6A09BE7E
:100938000A06BCEC0DF0090E09260950030DDC0E61
:10094800F324F66E7E0EF420F76E0900F5CF11F051
:100958000900F5CF12F00A00F5CF13F0000E066E6D
:100968000A0E056E2650036E046A03BE0406F4ECF4
:100978000EF00350030DDC0EF324F66E7E0EF42009
:10098800F76E0900F5CF14F00900F5CF15F00A004D
:10099800F5CF16F042EC0AF011C020F012C021F099
:1009A80013C022F012002650030DDC0EF324F66E5D
:1009B8007E0EF420F76E0900F5CF20F00900F5CF80
:1009C80021F00A00F5CF22F012002650800A120FFB
:1009D800D8A079D0000E0C6E0A0E0B6E000E066EB3
:1009E800640E056E2650036E046A03BE0406F4EC1A
:1009F8000EF003C009F004C00AF0BCEC0DF0090EBB
:100A080009260950030DB50EF324F66E7E0EF42068
:100A1800F76E0900F5CF14F00900F5CF15F00A00BC
:100A2800F5CF16F0000E0C6E640E0B6E2650096E94
:100A38000A6A09BE0A06BCEC0DF0120E0926095016
:100A4800030DB50EF324F66E7E0EF420F76E090042
:100A5800F5CF11F00900F5CF12F00A00F5CF13F029
:100A680042EC0AF011C023F012C024F013C025F0A4
:100A780023C011F024C012F025C013F0000E066E3A
:100A88000A0E056E2650036E046A03BE0406F4ECD3
:100A98000EF00350030DB50EF324F66E7E0EF4200F
:100AA800F76E0900F5CF14F00900F5CF15F00A002C
:100AB800F5CF16F042EC0AF011C020F012C021F078
:100AC80013C022F012002650800A750FD8A043D018
:100AD800000E0C6E0A0E0B6E2650096E0A6A09BECD
:100AE8000A06BCEC0DF0090E09260950030DB50ED7
:100AF800F324F66E7E0EF420F76E0900F5CF11F0A0
:100B08000900F5CF12F00A00F5CF13F0000E066EBB
:100B18000A0E056E2650036E046A03BE0406F4EC42
:100B28000EF00350030DB50EF324F66E7E0EF4207E
:100B3800F76E0900F5CF14F00900F5CF15F00A009B
:100B4800F5CF16F042EC0AF011C020F012C021F0E7
:100B580013C022F012002650030DB50EF324F66ED2
:100B68007E0EF420F76E0900F5CF20F00900F5CFCE
:100B780021F00A00F5CF22F01200010E00018E6F5D
:100B880020EC12F0000E096E000EB7EC11F0880E82
:100B9800086E7F0E096E3DEC10F0010E096E040E12
:100BA800B7EC11F0F60E086E7F0E096E3DEC10F0F2
:100BB8004D0E4C6E190E4B6E500EE82EFED74B2E76
:100BC800FCD74C2EFAD73EEC0EF0140E4DEC12F07A
:100BD80020EC12F0DDD0000E096E010EB7EC11F01A
:100BE800760E086E7F0E096E3DEC10F0010E096E50
:100BF800010EB7EC11F0760E3E6EB60E3F6E7F0E0C
:100C0800406EFA0E416E000E426E000E436E000EEC
:100C1800446E09EC00F0760E086E096A3DEC10F09F
:100C28004D0E4C6E190E4B6E500EE82EFED74B2E05
:100C3800FCD74C2EFAD720EC12F0000E096E010EEC
:100C4800B7EC11F0C40E086E7F0E096E3DEC10F083
:100C5800010E096E010EB7EC11F0DE0E086E7F0E64
:100C6800096E3DEC10F04D0E4C6E190E4B6E500E89
:100C7800E82EFED74B2EFCD74C2EFAD7640E5EEC2E
:100C88000FF011C08AF012C08BF013C08CF014C0A2
:100C98008DF08AC003F08BC004F08CC005F08DC0C5
:100CA80006F0FA0E076E000E086E000E096E000EB2
:100CB8000A6E12EC0CF003C054F004C055F005C0E5
:100CC80056F006C057F05450551056105710D8A477
:100CD80008D0010E546E000E556E000E566E000EB2
:100CE800576E000E046E000E036E54C005F055C01A
:100CF80006F056C007F057C008F05EEC11F0030E7E
:100D08004C6E8A0E4B6E560EE82EFED74B2EFCD735
:100D18004C2EFAD7000E096E010EB7EC11F0A70E93
:100D2800086E7F0E096E3DEC10F0010E096E010E83
:100D3800B7EC11F0EA0E086E7F0E096E3DEC10F06C
:100D48004D0E4C6E190E4B6E500EE82EFED74B2EE4
:100D5800FCD74C2EFAD720EC12F0000E096E010ECB
:100D6800B7EC11F0D20E086E7F0E096E3DEC10F054
:100D78004D0E4C6E190E4B6E500EE82EFED74B2EB4
:100D8800FCD74C2EFAD720EC12F000018E6B20D73E
:100D980000018E51D8B412001ED72B6E6D0E2B6435
:100DA8007CD00A0E076E640E036E2B50CCEC11F04B
:100DB8009BEC11F0236E2350030D1B0EF326000E3F
:100DC800F422DC0EF324F66E7E0EF420F76E090092
:100DD800F5CF14F00900F5CF15F00A00F5CF16F09D
:100DE800640E076E2B509BEC11F0246E2450030DFB
:100DF800360EF326000EF422DC0EF324F66E7E0E79
:100E0800F420F76E0900F5CF11F00900F5CF12F0C4
:100E18000A00F5CF13F042EC0AF011C028F012C016
:100E280029F013C02AF00A0E036E2B50CCEC11F0F7
:100E3800236E2350030DDC0EF324F66E7E0EF42091
:100E4800F76E0900F5CF14F00900F5CF15F00A0088
:100E5800F5CF16F028C011F029C012F02AC013F0FF
:100E680042EC0AF011C025F012C026F013C027F09A
:100E780025C011F026C012F027C013F0000E146E22
:100E8800000E156E3F0E166E42EC0AF011C020F0EF
:100E980012C021F013C022F012000A0E2B644FD0AA
:100EA8000A0E036E2B50CCEC11F0236E2350030D69
:100EB800DC0EF324F66E7E0EF420F76E0900F5CFF3
:100EC80014F00900F5CF15F00A00F5CF16F00A0E58
:100ED800076E2B509BEC11F0246E2450030D1B0E53
:100EE800F326000EF422DC0EF324F66E7E0EF420B8
:100EF800F76E0900F5CF11F00900F5CF12F00A00DE
:100F0800F5CF13F042EC0AF011C028F012C029F016
:100F180013C02AF028C011F029C012F02AC013F01B
:100F2800000E146E000E156E3F0E166E42EC0AF09F
:100F380011C020F012C021F013C022F012002B5073
:100F4800030DDC0EF324F66E7E0EF420F76E090016
:100F5800F5CF11F00900F5CF12F00A00F5CF13F024
:100F6800000E146E000E156E3F0E166E42EC0AF05F
:100F780011C020F012C021F013C022F012002EC0C0
:100F880032F0336A346A2D34323601E3338032501A
:100F9800376E31C032F0336A346A3034323601E3A6
:100FA80033803250366E3750D8B40AD03650375C5A
:100FB800D8B00DD03750365C326E180E326407D078
:100FC8002FC02CF030C02DF031C02EF0120036505A
:100FD800D8B40AD03750365CD8B00DD03650375C0C
:100FE800326E180E326407D02CC02CF02DC02DF0B4
:100FF8002EC02EF01200060E356E2EBE358E31BE76
:10100800358C2D8EFF0E2C16FF0E2D16000E2E166B
:10101800308EFF0E2F16FF0E3016000E311636508A
:10102800375CD8B01BD0D8902F36303631363606DC
:1010380037503618D8B40DD0350635C032F0070E03
:101048003216D8B406D0EFD7D8902E322D322C32A3
:10105800372A36503718D8B41FD0F6D73750365CF1
:10106800D8B01AD0D8902C362D362E3637063750B1
:101078003618D8B40DD0350635C032F0070E321602
:10108800D8B406D0EFD7D890313230322F32362A42
:1010980036503718D8A4F7D735AE0CD0FF0E2C1A17
:1010A800FF0E2D1AFF0E2E1A010E2C26000E2D22D1
:1010B800000E2E2235AC0CD0FF0E2F1AFF0E301A60
:1010C800FF0E311A010E2F26000E3022000E31229B
:1010D800356A2C502F262D5030222E50312231AE19
:1010E8000ED0FF0E2F1AFF0E301AFF0E311A010E06
:1010F8002F26000E3022000E3122010E356E2FC031
:1011080003F030C004F031C005F037C006F035C038
:1011180007F0CEEC0CF003C02CF004C02DF005C095
:101128002EF0120052EC12F0BEEC0FF02D0E40EC37
:1011380009F081BEC1EC05F057BE07D057505610D4
:1011480055100BE15404D8B008D0010E546E000EAF
:10115800556E000E566E000E576E140E4DEC12F0C2
:101168008C96000E25EC0DF0000E096E000EB7EC03
:1011780011F0980E086E7F0E096E3DEC10F0010E0E
:10118800096E000EB7EC11F0640E086E7F0E096E42
:101198003DEC10F000019C51D8B4FCD75250D8A4B3
:1011A80065D020EC12F0010E526E60D0000E096E70
:1011B800000EB7EC11F0520E086E7F0E096E3DEC72
:1011C80010F08C96640E25EC0DF081B802D0010E5B
:1011D800536E5350D8B44AD020EC12F08C96000EBF
:1011E80025EC0DF0000E096E000EB7EC11F0400E64
:1011F800086E7F0E096E3DEC10F01A0E4E6E5E0EF4
:101208004D6E6E0EE82EFED74D2EFCD74E2EFAD719
:1012180000D05A0E40EC09F077EC0CF01A0E4E6E26
:101228005E0E4D6E6E0EE82EFED74D2EFCD74E2E5E
:10123800FAD700D03C0E40EC09F01A0E4E6E5E0E46
:101248004D6E6E0EE82EFED74D2EFCD74E2EFAD7D9
:1012580000D0536A8C96640E25EC0DF081B804D04A
:1012680000019C51D8A4FAD720EC12F000019C513F
:10127800D8A49CD7526A74D71F6E1F50036E046A95
:10128800056A066AE80E076E030E086E000E096E00
:10129800000E0A6EE9EC0FF003C00FF004C010F066
:1012A80005C011F006C012F0B40E136E000E146ED5
:1012B800000E156E000E166EFDEC0DF0E80E0F24F4
:1012C800256E030E1020266E246A8C8425C003F038
:1012D80026C004F013EC12F08C94200E255C4E0E00
:1012E8002658D8B040D025502008206E2650D8A0C7
:1012F800E82A4E08216E20C003F021C004F0030E36
:10130800066EE80E056E14EC10F003C01DF004C064
:101318001EF020C003F021C004F0030E066EE80E94
:10132800056E1DEC11F003C022F004C023F008D0B4
:10133800070E1C6E7D0EE82EFED71C2EFCD7000073
:101348001D06D8A01E061D28F3E11E28D8A4F0D734
:1013580022502310D8B40ED022C003F023C004F0CA
:1013680013EC12F007D0820E1C6EDE0EE82EFED7AC
:101378001C2EFCD7242AC70E2464A7D7120005C048
:1013880009F00A6A0B6A0434093601E30A80095035
:10139800116E1150D8A409D0000E036E000E046E11
:1013A800000E056E000E066E120008C009F00A6AEB
:1013B8000B6A0734093601E30A800950106E105091
:1013C800D8B4EAD7048EFF0E0316FF0E0416000EDB
:1013D8000516078EFF0E0616FF0E0716000E0816D6
:1013E800000E0C6E000E0D6E000E0E6E000E0F6ECF
:1013F8007F0E115E1050980F115E180E106ED89067
:101408000C360D360E360F360650035C075004585E
:1014180008500558D8A007D00650035E0750045A54
:101428000850055A0C80D890033604360536102E1D
:10143800E6D711AE0DD01150800A970FD8A0ACD7BF
:10144800D8900F320E320D320C32113EF9D70DD032
:10145800170E116407D0A0D7D8900C360D360E366B
:101468000F3611061150D8A4F7D70CC003F00DC0E1
:1014780004F00EC005F00FC006F0120013C017F0FC
:10148800186A196A1234173601E3188017501A6E51
:101498001A50D8A407D0000E116E000E126E000E5E
:1014A800136E120016C017F0186A196A1534173629
:1014B80001E3188017501F6E1F50D8A407D0000EE4
:1014C800116E000E126E000E136E12001F507B0F6D
:1014D8001A2613C01FF016501F1A800E1F16128EE0
:1014E800158EFF0E1416FF0E1516000E1616000E9A
:1014F8001B6E000E1C6E000E1D6E070E1E6E11A0D8
:1015080006D014501B2615501C2216501D22D890A8
:10151800133212321132D8901436153616361E2E62
:10152800EED7090E1E6E11A006D014501B261550BA
:101538001C2216501D22D890133212321132D89024
:101548001D321C321B321E2EEED71BC003F01CC0EE
:1015580004F01DC005F01AC006F01FC007F0CEEC5D
:101568000CF003C011F004C012F005C013F0120013
:10157800053406340E6E0E50D8A409D0000E036E42
:10158800000E046E000E056E000E066E1200083482
:1015980009340D6E0D50D8B4F1D7058EFF0E031621
:1015A800FF0E0416FF0E0516000E0616088EFF0E17
:1015B8000616FF0E0716FF0E0816000E0916000E77
:1015C800096E000E0A6E000E0B6E000E0C6E7F0E7A
:1015D8000E5E0D50A00F0E5E200E0D6ED8900936CF
:1015E8000A360B360C360650035C07500458085070
:1015F800055809500658D8A009D00650035E075070
:10160800045A0850055A0950065A0980D8900336DA
:101618000436053606360D2EE1D70EAE0DD00E5027
:10162800800A9F0FD8A0AAD7D8900C320B320A3262
:1016380009320E3EF9D70DD01F0E0E6407D09ED783
:10164800D89009360A360B360C360E060E50D8A43A
:10165800F7D709C003F00AC004F00BC005F00CC0AE
:1016680006F0120017C01BF01C6A1D6A16341B36E0
:1016780001E31C801B50226E2250D8A407D0000E14
:10168800156E000E166E000E176E12001AC01BF0B3
:101698001C6A1D6A19341B3601E31C801B50236E1B
:1016A8002350D8A407D0000E156E000E166E000E3B
:1016B800176E1200000E1F6E000E206E000E216EB7
:1016C8002350890F225E17C023F01A50231A800E68
:1016D8002316168EFF0E1516FF0E1616000E171679
:1016E800198EFF0E1816FF0E1916000E1A16180E70
:1016F8001E6ED8901F36203621361850155C1950AA
:1017080016581A501758D8A007D01850155E1950F7
:10171800165A1A50175A1F80D8901536163617368B
:101728001E2EE7D71FC003F020C004F021C005F02B
:1017380022C006F023C007F0CEEC0CF003C015F071
:1017480004C016F005C017F0120029C02BF02C6A4F
:101758002D6A28342B3601E32C802B50356E3550FA
:10176800D8A409D0000E276E000E286E000E296E30
:10177800000E2A6E1200170E2B6E27C02CF028C000
:101788002DF029C02EF02B282F6E04D0D8902E32A1
:101798002D322C322F2EFAD72C50306E288EFF0E79
:1017A8002716FF0E2816000E29162750316E2850CE
:1017B800326E2950336E346A8E0E355E35AE0DD0DA
:1017C8003550800A8F0FD8A0CDD7D8903432333215
:1017D80032323132353EF9D70DD0170E356407D085
:1017E800C1D7D8903136323633363436350635508F
:1017F800D8A4F7D73050D8B408D0341E331E321EC0
:10180800316C000E32223322342231C027F032C02C
:1018180028F033C029F034C02AF012000C6A0AAE4E
:101828000AD00A1E091E081E076C000E082209228B
:101838000A22010E0C6E06AE0AD0061E051E041EF4
:10184800036C000E042205220622010E0C1A000E5B
:101858000D6E000E0E6E000E0F6E000E106E07500D
:10186800081009100A10D8B42AD0010E0B6E06D041
:10187800D8900736083609360A360B2A0AAEF8D742
:10188800D8900D360E360F3610360750035C0850C8
:101898000458095005580A500658D8A009D00750CE
:1018A800035E0850045A0950055A0A50065A0D801A
:1018B800D8900A320932083207320B2EE1D70C5081
:1018C800D8B408D0101E0F1E0E1E0D6C000E0E226E
:1018D8000F2210220DC003F00EC004F00FC005F057
:1018E80010C006F01200000E0001996F000E9A6FEA
:1018F800000E9B6F000E966F480E976F430E986F01
:10190800210E4B6E760EE82EFED74B2EFCD700D05C
:101918000A0E4DEC12F029D00A0E74EC0DF024C01A
:1019280099F025C09AF026C09BF0010E096E000EB2
:10193800B7EC11F0760E3E6E2B0E3F6E7F0E406EAA
:1019480099C041F09AC042F09BC043F009EC00F006
:10195800760E086E096A3DEC10F0210E4B6E760E7D
:10196800E82EFED74B2EFCD700D099C003F09AC0C2
:1019780004F09BC005F096C006F097C007F098C029
:1019880008F0BAEC0EF0D8B0120000019C51D8B49F
:101998001200C2D70650D8B405D003500410051061
:1019A800D8A40CD0000E036E000E046E000E056E57
:1019B8001200062AD890053204320332000E0314AE
:1019C800086E000E0414096EFE0E05140A6E085007
:1019D80009100A10D8B40CD0ECD7062A010E032639
:1019E800000E0422000E0522D8900532043203327C
:1019F800000E0314086E000E0414096EFF0E051481
:101A08000A6E085009100A10D8B406D0E6D70606A0
:101A1800D89003360436053604BE03D0020E06609D
:101A2800F6D706A0049ED890063206500512075035
:101A3800D8A4058E03C003F004C004F005C005F067
:101A48001200226E640E226402D0640E226ECB5005
:101A58001C6E1D6AD8901C361D36D8901C361D3653
:101A6800030E1C241E6E000E1D201F6E2250036ED6
:101A7800046A056A066A1EC007F01FC008F0096AF2
:101A88000A6AE9EC0FF003C00FF004C010F005C0BB
:101A980011F006C012F0640E136E000E146E000EE4
:101AA800156E000E166EFDEC0DF00FC020F010C084
:101AB80021F020C01CF021C01DF0D8901D321C322E
:101AC800D8901D321C321C50BE6E20C01CF0030E74
:101AD8001C161C3ABD501C18CF0B1C18BD6E1200EA
:101AE8002E6E2E505EEC0FF011C027F012C028F0B9
:101AF80013C029F014C02AF054505510561057102E
:101B0800D8A407D0000E246E000E256E000E266E97
:101B1800120027C00BF028C00CF029C00DF02AC015
:101B28000EF07FEC0EF00BC015F00CC016F00DC0D7
:101B380017F054C00BF055C00CF056C00DF057C04C
:101B48000EF07FEC0EF00BC018F00CC019F00DC0B1
:101B58001AF036EC0BF015C02BF016C02CF017C09D
:101B68002DF02BC024F02CC025F02DC026F012003B
:101B78000E6A0CAE06D00B6C0C1ED8B00C2A010EE7
:101B88000E6E0AAE06D0096C0A1ED8B00A2A010EDB
:101B98000E1A000E106E000E0F6E0B500C10D8B4FB
:101BA8001CD0010E0D6E04D0D8900B360C360D2AC1
:101BB8000CAEFAD7D8900F3610360B50095C0C5083
:101BC8000A58D8A005D00B50095E0C500A5A0F804D
:101BD800D8900C320B320D2EEDD70E50D8B404D05D
:101BE8000F6C101ED8B0102A0FC009F010C00AF0F0
:101BF8001200000E176E000E186E000E196E000E01
:101C08001A6E1350141015101610D8B42AD0010EDD
:101C18001B6E06D0D89013361436153616361B2A86
:101C280016AEF8D7D8901736183619361A36135014
:101C38000F5C145010581550115816501258D8A04F
:101C480009D013500F5E1450105A1550115A1650DF
:101C5800125A1780D89016321532143213321B2EAE
:101C6800E1D717C00FF018C010F019C011F01AC052
:101C780012F01200000E086E000E096E000E0A6EB9
:101C8800000E0B6E076A8C8200D000D00000D8903E
:101C98000834086E0934096E0A340A6E0B340B6E68
:101CA80083A006D0010E0826000E09220A220B2264
:101CB8008C9200D000D00000072A170E0764E3D7E3
:101CC8008C8200D000D000008C9200D000D00000A0
:101CD8000AAE08D0000E0812000E0912000E0A12F1
:101CE800FF0E0B1208C003F009C004F00AC005F08B
:101CF8000BC006F01200146A8E0E136E0EAE11D0D1
:101D08000E1E0D1E0C1E0B6C000E0C220D220E2238
:101D1800010E146E06D0D8900E320D320C320B32F2
:101D2800132A000E0B140F6E000E0C14106E000E0A
:101D38000D14116EFF0E0E14126E0F5010101110AC
:101D48001210D8A4E8D70BC003F00CC004F00DC0E3
:101D580005F013C006F014C007F0CEEC0CF003C079
:101D68000BF004C00CF005C00DF0120005AE0FD04A
:101D7800000E096E000E0A6E800E0B6E0350095C91
:101D8800036E04500A58046E05500B58056E08AED1
:101D98000FD0000E096E000E0A6E800E0B6E0650F4
:101DA800095C066E07500A58076E08500B58086EF3
:101DB800000E031A000E041A800E051A000E061AE9
:101DC800000E071A800E081A0650035C07500458C4
:101DD80008500558D8B002D0D8901200D880120008
:101DE800086A04AE06D0036C041ED8B0042A010E9B
:101DF800086E06AE04D0056C061ED8B0062A05503B
:101E08000610D8B418D0010E076E04D0D890053645
:101E18000636072A06AEFAD70550035C0650045862
:101E2800D8A004D00550035E0650045AD890063254
:101E38000532072EF1D70850D8B404D0036C041E1D
:101E4800D8B0042A03C003F004C004F012002050E4
:101E5800211022102310D8B424D0010E246E06D0ED
:101E6800D8902036213622362336242A23AEF8D7B6
:101E780020501C5C21501D5822501E5823501F58BA
:101E8800D8A008D020501C5E21501D5A22501E5A3E
:101E980023501F5AD8902332223221322032242E46
:101EA800E7D71CC01CF01DC01DF01EC01EF01FC0CF
:101EB8001FF012001A6E000E156E000E166E000E40
:101EC800176E000E186E196A0BD03EEC0EF0035018
:101ED8001526045016220550172206501822192AD2
:101EE8001A50195CD8A0F1D715C003F016C004F039
:101EF80017C005F018C006F01A50076E086A096A7C
:101F08000A6A12EC0CF003C011F004C012F005C00C
:101F180013F006C014F012008E0E136E06D0D8907F
:101F28000E320D320C320B32132A000E0B140F6EC8
:101F3800000E0C14106E000E0D14116EFF0E0E1410
:101F4800126E0F50101011101210D8A4E8D70BC041
:101F580003F00CC004F00DC005F013C006F0000E2D
:101F6800076ECEEC0CF003C00BF004C00CF005C0FB
:101F78000DF01200D36A93689568946895809592DD
:101F88008C9295948C9495968C969388938A938C3E
:101F9800938EF19E2BEC12F035EC12F0B3EC10F0AE
:101FA800000E046E000E036E8DEC10F003C054F0AA
:101FB80004C055F005C056F006C057F08150F00B2C
:101FC8004F6EF290F286F28E1200000E0B6E000E2B
:101FD8000C6E000E0D6E000E0E6E03A008D007509A
:101FE8000B2608500C2209500D220A500E22D890B8
:101FF8000736083609360A36D890063205320432D2
:1020080003320350041005100610D8A4E6D70BC0FD
:1020180003F00CC004F00DC005F00EC006F012006D
:10202800000E086E000E076E05500610D8B41CD0BE
:10203800010E096E04D0D89005360636092A06AE78
:10204800FAD7D890073608360550035C065004586E
:10205800D8A005D00550035E0650045A0780D890D2
:1020680006320532092EEDD707C003F008C004F088
:10207800120014D008C0F6FF09C0F7FFF86A070E6F
:10208800F76403D00800F55005D0F6CFD9FFF7CF95
:10209800DAFFDF50D8EC10F0084A092A08C0F6FF2A
:1020A80009C0F7FFF86A070EF76403D00800F55077
:1020B80005D0F6CFD9FFF7CFDAFFDF500009D8B443
:1020C8001200D8D7066E0650F00B076E0638F00BD4
:1020D800F00B086E5AEC12F0400E47EC12F0075065
:1020E8000C0947EC12F00750080947EC12F00850A9
:1020F8000C0947EC12F00850080947EC12F056ECAE
:1021080012F00D0E056EFC0EE82EFED7052EFCD73C
:102118001200000E096E000E0A6E000E0B6E000E05
:102128000C6E090E076E0D6A0D500324086E08C068
:10213800A9FFA69EA69CA68007500D24D96EDA6A30
:10214800A8CFDFFF0D2A030E0D64EED709C003F0F8
:102158000AC004F00BC005F00CC006F01200020E15
:102168000A6E450E096EAA0EE82EFED7092EFCD778
:102178000A2EFAD7330E66EC10F0320E66EC10F029
:10218800280E66EC10F00C0E66EC10F0060E66ECED
:1021980010F0010E66EC10F00D0E096EFC0EE82E24
:1021A800FED7092EFCD71200056E0550F00B066EFF
:1021B8000538F00BF00B076E5AEC12F0400E47ECA6
:1021C80012F006500D0947EC12F00650090947ECC9
:1021D80012F007500D0947EC12F00750090947ECB7
:1021E80012F056EC12F0530EE82EFED70000120043
:1021F800BC0EF66E240EF76E000EF86E00EE54F06C
:1022080010EE04F00900F5CFEEFFE550E150FAE1D9
:1022180000019C6B9B6B9A6B996B536A526A516A6B
:10222800506A4F6A58905892000EF86E000196EF67
:1022380008F005500610D8B418D0010E076E04D067
:10224800D89005360636072A06AEFAD70550035C3D
:1022580006500458D8A004D00550035E0650045A0E
:10226800D89006320532072EF1D703C003F004C018
:1022780004F012003B503C103D10D8B406D0000EBC
:102288003B1A000E3C1A800E3D1A38C02CF039C09B
:102298002DF03AC02EF03BC02FF03CC030F03DC0CE
:1022A80031F0C3EC07F02CC038F02DC039F02EC047
:1022B8003AF01200050E096E0B6A0B5003240A6EE1
:1022C800A6B2FED70AC0A9FF09500B24D96EDA6A54
:1022D800DF50A86EA69EA69CA684F29E550EA76EF9
:1022E800AA0EA76EA682F28EA6940B2A030E0B6482
:1022F800E4D712000600F2A018D08150F00B026E4D
:102308004F500218016E01BA4FAA05D002BA03D085
:10231800010E00019C6F01BC4FAC04D002BC02D07E
:1023280000019C6B02C04FF0F29058921100086EA9
:102338000A6A0750D8B415D0010E096E03D0D89098
:102348000736092A07AEFBD7D8900A360750085C2B
:10235800D8A003D00750085E0A80D8900732092E0B
:10236800F3D70A5012000A6E0950D8B404D0000EF0
:102378000C6E400E03D0000E0C6E000E0B6E0BC0E0
:102388000DF00A500D260D50800966EC10F0120071
:10239800046E080E056E066AD89004340634066E7C
:1023A800D89004360350065CD8A002D00350065ECD
:1023B800052EF2D70650120003500502F3CF07F09E
:1023C800F4CF08F003500602F35008260450050223
:1023D800F350082607C003F008C004F012000350A9
:1023E80004100510D8B406D0000E031A000E041A03
:1023F800800E051A03C003F004C004F005C005F000
:102408001200056E046A3A0E056005D02F0E0564A9
:1024180002D0010E046E04C003F00330120003D092
:1024280000D000D000000306D8A004060328F8E175
:102438000428D8B41200F4D7010E66EC10F00D0E83
:10244800096EFC0EE82EFED7092EFCD712009494D4
:10245800F90ECB6E040ECA6E0C0EBD6EBE6A9E924D
:102468001200280EC66EC56A310EC86EC76A938000
:1024780093821200C5CF03F01F0E0316D8A4FAD713
:10248800C7A41200F7D7046E3EEC12F004C0C9FFCF
:1024980012001B6E1B505EEC0FF012009592958097
:1024A8008C9212003EEC12F0C58412003EEC12F041
:0824B800C580120001000000C4
:107EB4000000803F00204100C842007A44401C4634
:107EC40050C34724744997184BBCBE4C6B6E4E0389
:107ED400155079AD60F3497100803FCDCC3DD72377
:107EE4003C12833AB7D138C62737388635C0D633E3
:107EF400CC2B32708930E7DB2EE53C1E42A20D010B
:107F04000000000A00000064000000E80300001004
:107F1400270000A086010040420F008096980000D0
:107F2400E1F50500CA9A3B5065736F3A20252E305F
:107F34006620672020202020202020004C4C454E25
:107F4400414E444F20202020202020202000454E58
:107F54002050524F4345534F202020202020200002
:107F64005041524120494E4943494152202020204A
:107F740020005065736F207265666572656E636973
:107F8400616C3A0043616C696272616E646F206275
:107F94006173650050524553494F4E452053544137
:107FA40052540052657469726520656C2050657383
:107FB4006F00256C642067202020202020202000D2
:107FC400506F6E676120656C205065736F00524579
:107FD40041445921212E2E2E2E005265666572656C
:107FE4006E6369616C007265666572656E63696172
:0B7FF4006C0042616C616E7A6100005D
:020000040030CA
:08000000000C1F1EFF8181FFAF
:00000001FF
