:1000000000308A00A2280000831A0A28A400030EE8
:10001000A5000F288312A400030EA500A5140A084A
:10002000AB008A018313A40E0408A6002008A700D1
:100030002108A8002208A9002308AA0083128B1D0A
:1000400023280B184928260884002708A000280820
:10005000A1002908A2002A08A3002B088A00250E67
:1000600083008312240EA518831609001230B702EC
:10007000031C482837308400FC3080050310800CB6
:10008000800C00080319482846280000800B4528EA
:1000900008008510831685100A3083122C07B200E1
:1000A0002D08B300003003180130B3072E08B40048
:1000B000003003180130B4072F08B50000300318D2
:1000C0000130B5073308B600B60AB60303196C2829
:1000D000FF30B700362065283208B7003620851477
:1000E0008316851083120B108A1123283130840067
:1000F0000008031989280130A100A001A00B7E2867
:10010000A10B7D284A30A000A00B84288728800BF3
:100110007B28D3280030A1001F08F33921049F0059
:100120000230A000A00B9228952800009F149F1871
:10013000972883161E088312AC001E08AD00AE017E
:10014000AF01E12803081F398300613083168F0057
:100150000F0805158510851283128512AF01AE01B7
:10016000AD01AC011F1383161F109F101F119F11AB
:10017000073083129900613083168F000F089501B4
:1001800081171F169F161F1383129F171F141F130B
:1001900083161F149F101F119F1104308312B0008B
:1001A000FA30B1007628B00BD0288B15FF308316BB
:1001B000960483128B1583161615C03083128B0498
:0601C0008A28E02863001C
:02400E00C43CB0
:00000001FF
;PIC12F683
;CRC=16D6  CREATED="24-feb-17 14:28"
